:020000040800F2
:1000000048070020F1010008DD280008C52000088D
:10001000D9280008A1040008F12800080000000009
:10002000000000000000000000000000E5280008BB
:10003000A504000800000000E1280008E9280008E5
:100040000B0200080B0200080B0200080B0200085C
:100050000B0200080B0200080B0200080B0200084C
:100060000B0200080B0200080B0200080B0200083C
:100070000B0200080B0200080B0200080B0200082C
:100080000B0200080B0200080B0200080000000031
:100090000000000000000000000000000B0200084B
:1000A0000B0200080B0200080B0200080B020008FC
:1000B0000B0200080B0200080B0200080B020008EC
:1000C0000B0200080B0200080B0200080B020008DC
:1000D0000B0200080B0200080B0200080B020008CC
:1000E0000B0200080B0200080B02000800000000D1
:1000F0000000000000000000000000000000000000
:1001000000000000000000000000000000000000EF
:1001100000000000000000000B0200080B020008B5
:1001200000F002F800F055F814A696E8000CB2446E
:10013000B344DA4501D100F04CF8BAE80F000FA63D
:1001400096E83000A5EB040504EB0607AAEB0704CC
:10015000A7F101074FEA15154FEA3414A4F1010481
:10016000AC4201D300F035F813F0010F18BFFB1AB1
:1001700043F0010300F001F8DBE71847E02E000030
:10018000002F0000103A24BF78C878C1FAD852076F
:1001900024BF30C830C144BF04680C607047000001
:1001A000704700000023002400250026103A28BFD5
:1001B00078C1FBD8520728BF30C148BF0B607047D9
:1001C000642900F07D80002070471FB51FBD10B569
:1001D00010BD00F02AF91146FFF7F7FF02F018FCF6
:1001E00000F048F903B4FFF7F2FF03BC00F050F948
:1001F0000948804709480047FEE7FEE7FEE7FEE7BB
:10020000FEE7FEE7FEE7FEE7FEE7FEE704480549F6
:10021000054A064B70470000ED2800082101000840
:100220004801002048070020480300204803002020
:100230000FB41CB5074B06AA7B446946009005988D
:1002400000F0DBF80020694600F0EAF81CBC5DF81D
:1002500014FB0000E50100002DE9F0410E460446C4
:10026000002020622046E168884730B3252805D069
:10027000D4E901219047206A401CF2E7E16820465A
:1002800000278847050018D0A5F14100192802D899
:1002900020354FF400673246294620462760FFF795
:1002A0008FFF40B1012804D0F61D26F0070608365E
:1002B000D8E7361DD6E72846DAE7206ABDE8F081A0
:1002C0002DE9F0410646002410687529314616A52F
:1002D00010D0AFF30080002802DA404213A507E0F7
:1002E00031688A0701D512A502E0490704D511A596
:1002F000012401E0AFF3008000210A2206F1240767
:1003000009E0B0FBF2FCB0FBF2F302FB1C00303062
:1003100078541846491C0028F3D123462A46304613
:10032000BDE8F04100F00BB8000000002D00000017
:100330002B000000200000007047704770472DE937
:10034000F0470D4699469246044600F1240801689C
:10035000880604D5E06921F01001216000E0012049
:10036000A84201DD471B00E00027A1697A1902EBD2
:100370000900081AA0612078C00602D42046AFF315
:100380000080002608E0D4E901211AF80600904711
:10039000206A401C761C20624E45F4DB2078C006A3
:1003A0000AD52046AFF3008006E0D4E901213020D1
:1003B0009047206A401C2062381EA7F10107F4DC38
:1003C00007E0D4E9012118F805009047206A401C95
:1003D0002062281EA5F10105F3DC2046AFF3008062
:1003E0002078000602D50220BDE8F0870120FBE757
:1003F00001694A1C02610878704700B58FB0CDE9E9
:1004000001310021059105497944CDE903101146D8
:100410006846FFF721FF0FB000BD0000E5FFFFFFBA
:100420000A6802F8010B0A607047754600F02CF864
:10043000AE4605006946534620F00700854618B0D1
:1004400020B5FFF7E3FEBDE820404FF000064FF077
:1004500000074FF000084FF0000BAC46ACE8C009B5
:10046000ACE8C009ACE8C009ACE8C00921F007015C
:100470008D46704710B50446AFF300802046BDE8B6
:100480001040FFF7AFBE000000487047200000207A
:1004900001491820ABBEFEE72600020070470000AD
:1004A000FEE7000070470000B0B5044600F024F9F4
:1004B000054640F21000C2F200000078611C18BF2F
:1004C000044400BF00F018F9401BA042FAD3B0BDAD
:1004D0002DE9F04F82B00E68002E00F0FD8041F251
:1004E0000042C4F20102042340F2004E904208BFD1
:1004F00003234FF6FF7CC4F2010E00930024012376
:10050000C1F2100C4FF0000A4FF0000944E000BFA8
:10051000012704F00C030F229A402BEA020207FA8B
:1005200003F34FEA9A051A4346F825204E6840F235
:100530000C45F202DEF8082054BF22EA080242EA23
:100540000802C4F20105CEF808202A68B30254BF9D
:1005500022EA080242EA08022A60B303DEF8042015
:1005600054BF22EA080242EA0802F303CEF804204C
:10057000DEF800204FF0010354BF22EA080242EAED
:100580000802CEF800200E680AF1010A36FA0AF2D3
:1005900004F1040400F0A08003FA0AFB16EA0B0839
:1005A000F1D04E68664511DC122E55D8DFE806F012
:1005B000340A444854545454545454545454545481
:1005C000544C5000D1F80C9046E000BF4FF6FF723B
:1005D000C1F2210296420FDC0022C1F211029642C2
:1005E0001AD00022C1F21202964215D00022C1F2A6
:1005F0002102964210D02FE00022C1F22202964240
:100600000AD00022C1F23102964205D00022C1F286
:100610003202964220D100BF8A684AB1012A14BF33
:10062000C0F814B0C0F810B04FF0080914E000BFD3
:100630004FF0040910E000BFCA6802F108090BE09E
:100640004FF0000908E000BFCA6802F1040903E0A6
:10065000CA6802F10C0900BF22460646B8F5807F41
:1006600024BF203A043637680F25954027EA050550
:1006700009FA02F22A433260CA79D2067FF583AFC3
:1006800041F21803C4F202031A68AEF57E7642F016
:1006900001021A601A6802F001020192019A2AF01E
:1006A000030256F802B040F60002C4F20102904282
:1006B00010D040F60042C4F2010290423FF428AF4D
:1006C00041F20002C4F20102009F904208BF0227DB
:1006D0001FE700BF00271CE702B0BDE8F08F000055
:1006E0008068084018BF012070470000002A08BF3A
:1006F000090401617047000040F24410C2F200009A
:1007000000687047002804BF01207047F0B581B031
:10071000044690F83D0028B9002084F83C002046AB
:1007200000F0ECFC242084F83D002068016821F0F2
:1007300001010160016841F400410160016821F498
:100740000041016000F04EFE636848F2A16CC0F207
:10075000010C40F60011C0F23D0163453CBF48F278
:100760008041C0F21E01884202D2012001B0F0BDDA
:100770004DF68361C4F21B31A0FB01122168970C76
:10078000D1F804E04FF496762EF03F0545EA924505
:100790004D60774348F638160D6AC0F24106A7FB54
:1007A000067625F03F07634538BF960C721C3A4326
:1007B0000A62CA6948F2A0664CF6FF77C0F20106E9
:1007C000B34222EA07020BD801385B00B0FBF3F01A
:1007D00001306FF31F30042898BF04201BE000BFD6
:1007E000A768013857B119277B43B0FBF3F00130FC
:1007F0006FF31F3070B100F5804007E003EB430357
:10080000B0FBF3F001306FF31F3018B100F500407A
:1008100001E000BF01201043C8610868D4E9072344
:1008200020F0C000104318430860886848F2FF3287
:1008300004F10C0790438CCF18431043A6698860DD
:10084000C86820F0FF0038433043C860086840F0B3
:100850000100086000202021206484F83D102063FE
:1008600084F83E0001B0F0BD2DE9F04F83B01E4684
:10087000924688460446FFF73FFF94F83D10202932
:1008800024D12168054600BF886980071AD5FFF783
:1008900033FF401B21681A28F6D388698007F3D5F7
:1008A00000202021206384F83D1084F83E00216C54
:1008B000022641F02001216484F83C00304603B058
:1008C000BDE8F08F94F83C00012805D1022630469F
:1008D00003B0BDE8F08F00BF4FF0010984F83C90F1
:1008E0000868C00703D1086840F001000860086884
:1008F000002720F400600860242084F83D000020D8
:10090000CFF6FF702764E06208F0FE08BAF1010F2D
:1009100088BFD1464FF0A00A4FF0200B04E000BF83
:1009200001374F4500F09A800868002240F480703B
:10093000086020464FF001113346009501F010FD8C
:100940002168002856D1C1F81080FFF7D5FE216834
:100950004B694A6994F83D50A02D054605D013F027
:10096000020008BF12F480601AD084F83DB04869D4
:100970000A68800742F400720A6047D46FF480600E
:10098000486100BF88698007CAD5FFF7B5FE401BE4
:1009900021681A28F6D388698007F3D54CE000BF98
:1009A000B6B100BFFFF7A8FE401BB04288BF84F875
:1009B0003DA021684A69486994F83D30A02BD4D005
:1009C00012F0020208BF10F48060EBD0CDE700BF48
:1009D000FFF792FE84F83DA021684A69486994F8BF
:1009E0003D30A02BC1D012F00202BED110F48060C5
:1009F000EED0BAE708680326C00544BF4FF4007084
:100A00002064304603B0BDE8F08F00BF0026029698
:100A100048690290886902900298886901E000BFE5
:100A20008069800720D5FFF767FE411B20681A29DF
:100A3000F6D381698907F3D500202021206384F84B
:100A40003D1084F83E00216C41F020012164012614
:100A500084F83C00304603B0BDE8F08F202084F8D5
:100A60003D000020F3E700BF202084F83D0084F81B
:100A70003C60304603B0BDE8F08F00002DE9F04344
:100A800083B01E46174689460446FFF735FE94F8A4
:100A90003D10202924D10546206800BF81698907BF
:100AA0001AD5FFF729FE411B20681A29F6D3816960
:100AB0008907F3D500202021206384F83D1084F8B5
:100AC0003E00216C41F02001216484F83C000220AA
:100AD00003B0BDE8F08300BF94F83C10012903D1B6
:100AE000022003B0BDE8F083012184F83C100168C6
:100AF000C90703D1016841F001010160016840F2BA
:100B0000020821F400610160212184F83D101021C8
:100B100084F83E100021216467626685618DC0F211
:100B200001082185A8F10211E162E16A0A9E11F52E
:100B3000803F18BF01291DD1016841F48071016017
:100B400020464FF0011100223346009501F008FCC9
:100B500050B120680068C00544BF4FF400702064A5
:100B6000012003B0BDE8F0832069B0F5804F07D1C4
:100B7000FE2015E00829DFD0216B1229DCD0DFE749
:100B8000062000EAD9102168F030086108F106015A
:100B9000204632462B4601F0C9FC0028E0D1FF2058
:100BA000216800EA090008612046414632462B468A
:100BB00001F0BCFC0028D3D10020029020684169DC
:100BC000029180690290029806E000BF20463146FB
:100BD0002A4601F067FB18BB208D68B320463146DA
:100BE0002A4601F057FDD8B9606A2168024612F81A
:100BF000013B0B616262628D013A6285228D531E58
:100C000023854F697F07E1D51B04DFD0437802308D
:100C10000B616062608D01386085901E2085D5E78C
:100C2000206C04289CD12068016841F400710160A7
:100C3000012003B0BDE8F0832068016841F4007131
:100C40000160202084F83D00002084F83E0084F8F4
:100C50003C0003B0BDE8F0832DE9F04F85B00446B9
:100C60000020994616460F460490FFF745FD94F87C
:100C70003D10202927D10546206800BF81698907DA
:100C80001CD5FFF739FD411B20681A29F6D381696D
:100C90008907F3D500202021206384F83D1084F8D3
:100CA0003E00206C04F13C0A40F020002064022049
:100CB00000218AF8001005B0BDE8F08FA2461AF8AE
:100CC0003C1F012904D1022005B0BDE8F08F00BF10
:100CD00001228AF800200368DDE90F180E9ADB076D
:100CE00003D1036843F001030360036823F4006346
:100CF0000360222084F83D00402084F83E0000205C
:100D0000206462626185608D394620850020CFF6BF
:100D1000FF70E062204632464B46CDE9008501F087
:100D2000D3F918B1012005B0BDE8F08F208D02285D
:100D300010D0012824D0002838D10020039020684A
:100D400041690391816903910399016841F400713C
:100D5000016037E02068016841F400610160EFF351
:100D6000108072B600200390206841690391816968
:100D700003910399016821F48061016062B621E06A
:100D80002068016821F480610160EFF3108072B681
:100D900000200390206841690391816903910399C0
:100DA000016841F40071016062B60BE020680168DF
:100DB00041F48061016000210391416903918069E0
:100DC00003900398208D002800F0CA80042740F289
:100DD00018094BF2895BC0F20107C2F20009C1F2A7
:100DE000F84B232617E000BF204641462A4601F073
:100DF00009FC002896D12068616A00690870606A61
:100E0000218D01306062481E2085618D0139618528
:100E1000010400F0A58080B2032865D8022800F004
:100E20007F800128E0D020463946002243460095C5
:100E300001F096FA00287FF475AF2068016821F46C
:100E400080610160EFF3108072B62068616A00690A
:100E50000870606A218D0130013960622185618DE1
:100E600001396185D9F80010C908A1FB0B12110ADC
:100E7000714304910499013904910499002900F007
:100E80007B8021684A6952071DD404990139049175
:100E90000499002970D021684A69520713D4049933
:100EA000013904910499002966D021684A695207E2
:100EB00009D4049901390491049900295CD021686E
:100EC0004A695207D6D50A6842F400720A60096975
:100ED0000170606A218D01306062481E2085608D3E
:100EE0000138608562B686E7204641462A4601F011
:100EF00089FB00287FF416AF2068616A00690870DA
:100F0000606A2268411C208D616201382085638DF2
:100F1000013B638553695B077FF57AAF10696DE725
:100F20002046394600224346009501F019FA002870
:100F30007FF4F8AEEFF3108072B62068616A026841
:100F400042F40072026000690870606A218D01300D
:100F50006062481E2085608D0138608562B64AE770
:100F6000202084F83D00002084F83E0000218AF80B
:100F7000001005B0BDE8F08F00202021206384F828
:100F80003D1084F83E00206C40F02000206462B6E2
:100F9000012000218AF8001005B0BDE8F08F0000A4
:100FA0002DE9F04383B0994616460F460446FFF7F5
:100FB000A3FB94F83D10202924D10546206800BFEA
:100FC000816989071AD5FFF797FB411B20681A2909
:100FD000F6D381698907F3D500202021206384F8A6
:100FE0003D1084F83E00216C41F02001216484F81A
:100FF0003C00022003B0BDE8F08300BF94F83C1031
:10100000012903D1022003B0BDE8F083012284F856
:101010003C200368DDE90B180A9ADB0703D103685B
:1010200043F001030360036823F40063036021209D
:1010300084F83D00402084F83E0000202064626275
:101040006185608D394620850020CFF6FF70E06213
:10105000204632464B46CDE9008501F0BFF818B175
:10106000012003B0BDE8F083208D98B920464146A9
:101070002A4601F017F988B3206C0428F0D12068C3
:10108000016841F400710160012003B0BDE8F08304
:101090000004EBD0204641462A4601F0FBFA002826
:1010A000EAD1616A2268084610F8013B1361238D7A
:1010B0006062581E2085678D013F678557697F07ED
:1010C000E6D50704E4D048781061881C6062981E59
:1010D0002085618D01396185DAE700BF20680168EC
:1010E00041F400710160202084F83D00002084F864
:1010F0003E0084F83C0003B0BDE8F08310B586B034
:1011000045F200410068C4F20001002288420492C6
:1011100002D006B010BD00BF41F21804C4F20204B0
:10112000206840F008002060206800F0080001906E
:101130000198C0200290122003900320059001F531
:10114000384002A9FFF7C4F9606840F400106060FD
:10115000606800F400100190019806B010BD000016
:1011600040F2100040F24411C2F20000C2F200014D
:1011700000780A68104408607047000080B50320BA
:1011800000F07AF8002000F005F800F027F80020C1
:1011900080BD000070B540F21006C2F2000640F2B9
:1011A00018013278C2F200014FF47A730968B3FB78
:1011B000F2F20446B1FBF2F1084600F027FB0F2CD7
:1011C0004FF0010508D838B94FF0FF302146002212
:1011D000002500F025F87460284670BD82B041F209
:1011E0001800C4F202000168022241F0010101600E
:1011F000016801F0010101910199416841F08051BC
:101200004160406800F08050009000980420C4F2D3
:101210000100016862F31A61016002B070470000CA
:1012200010B54EF60C5CCEF2000CDCF80030C3F3C7
:10123000022E8EF00704042C28BF0424BEF1030301
:101240004FF0FF3E0EFA04F438BF0023A14399404B
:101250000EFA03F39A43114300F00F0200F16043CA
:101260000901043A03F564436244002848BF02F1CF
:101270000C03197010BD00004EF60C51CEF20001A7
:101280000A684FF6FF031A4060F30A2242F08060BA
:1012900040F0FD7008607047002804BF01207047CF
:1012A000F0B581B00446006841F204068107C4F23B
:1012B000020611D5410703D5316841F4E061316080
:1012C000010703D5316841F4605131603168A2688B
:1012D00021F0F00111433160C10736D06068022867
:1012E00008D001280ED156F8041C890312D401201D
:1012F00001B0F0BD56F8041C89010BD4012001B0E7
:10130000F0BD00BF56F8041C890703D4012001B0CA
:10131000F0BD00BF316821F0030108433060FFF7E2
:10132000EBF9054641F288373068616800F00C003F
:10133000B0EB810F08D0FFF7DFF9401BB842F3D9BB
:10134000032001B0F0BD00BF2068410705D531681A
:10135000E26821F4E06111433160000706D530688E
:10136000216920F4605040EAC1003060326802F028
:101370000C00082841F20020C0F27A0019D143F293
:101380003C03C2F38341C0F60003595CD20305D489
:1013900040F60010C0F23D0048430AE0B26A43F252
:1013A0004C0302F00F02C0F600039A5C4843B0FB06
:1013B000F2F0316843F22402C1F30311C0F60002D7
:1013C000515C40F2180220FA01F140F21400C2F21E
:1013D00000000068C2F200021160FFF7DBFE00208F
:1013E00001B0F0BD40F2180041F20401C2F2000069
:1013F000C4F202010068096843F23402C1F3022119
:10140000C0F60002515CC84070470000002804BFCD
:10141000012070472DE9F04182B00446007841F286
:101420000006C007C4F202060CD0706800F00C0081
:10143000042840F081803068800303D5606800286C
:1014400000F04E81207880071BD5706810F00C0FDB
:1014500009D0706800F00C00082840F08B8070689C
:10146000C00300F187803068800703D52069012818
:1014700040F036813068616920F0F80040EAC10030
:1014800030602078000713D4207840072CD4E56919
:10149000002D00F02081706800F00C00082840F05A
:1014A000AF80012D40F00C81012002B0BDE8F08139
:1014B000A069002800F08C800020C4F242200121A5
:1014C000C0F88014FFF718F9054600BF706A80075E
:1014D00000F1BA80FFF710F9401B0228F6D903206B
:1014E00002B0BDE8F08100BFF0695FEAC00808D42F
:1014F000F06940F08050F061F06900F08050009099
:10150000009847F20007C4F200073868C0054DD4C0
:10151000386840F480703860FFF7EEF8054600BF89
:101520003868C00542D4FFF7E7F8401B6428F7D9B4
:10153000032002B0BDE8F081706800F00C000828BC
:1015400003D17068C0033FF576AF6068002800F0F3
:101550000981B0F5A02F00F01D81B0F5803F00F0AB
:101560001D81306820F480303060306820F48020A5
:1015700017E100BF2069002840F20000C4F24220B9
:1015800000F08C8001210160FFF7B6F8054600BF2E
:10159000306880073FF56EAFFFF7AEF8401B0228BA
:1015A000F6D9032002B0BDE8F08100BFE068002852
:1015B00000F09A80052800F0B180012800F0B28088
:1015C000306A20F001003062306A20F00400ACE0A4
:1015D0000020C4F242200021C0F88014FFF78CF8EC
:1015E000054600BF706A80077FF54EAFFFF784F8AD
:1015F000401B0228F6D9032002B0BDE8F08100BFED
:101600000027C4F2422700203866FFF775F8022D44
:1016100005460DD13068800140F1D680FFF76CF8A7
:10162000401B02284FF00300F4D902B0BDE8F0815E
:10163000306880014FD5FFF75FF8401B02284FF05C
:101640000300F5D9F1E700BF40F21800C2F2000034
:10165000006844F6D351C1F26201A0FB0101480ABF
:10166000019000BF00BF0198411E002801913FF486
:101670000BAF00BF0198411E002801913FF404AF59
:1016800000BF0198411E002801913FF4FDAE00BF4C
:101690000198411E00280191E4D1F5E60021016086
:1016A000FFF72AF8054600BF306880077FF5E9AEEE
:1016B000FFF722F8401B02284FF00300F4D9B4E7EB
:1016C0007068216A00F480328A4209D1616A00F4AC
:1016D0007010884204D1002002B0BDE8F08100BF44
:1016E000012002B0BDE8F081306A20F001003062D4
:1016F000306A20F004003062FEF7FEFF054641F23A
:10170000883700BF306A800722D5FEF7F5FF401BFF
:10171000B8424FF00300F5D987E700BF306A40F0C8
:1017200004003062306A40F001003062FEF7E4FFEE
:10173000054641F2883700BF306A800708D4FEF7BB
:10174000DBFF401BB842F7D9032002B0BDE8F081AF
:10175000B8F1000F3FF59BAEF06920F08050F061CA
:1017600095E600BF306820F480303060306820F4A7
:1017700080203060FEF7C0FF054600BF3068800360
:101780007FF560AEFEF7B8FF401B64284FF0030002
:10179000F4D94AE7306840F480203060306840F483
:1017A00080303060FEF7A8FF054600BF3068800338
:1017B0003FF548AEFEF7A0FF401B6428F6D9032092
:1017C00002B0BDE8F08100BF206AB0F5803F05D1CE
:1017D000F16AA26821F00F011143F1627168626A37
:1017E00021F4741111430843706001203866FEF73C
:1017F00083FF0446306880013FF56DAFFEF77CFF44
:10180000001B02284FF00300F4D90EE7411E002010
:10181000B0EB116F1CBF012070474EF21002CEF2E8
:10182000000251604EF62351CEF20001F0230B70FE
:10183000072190601160704790F83C20012A4FF01A
:1018400002023BD010B580F83D200268D2F804E0D7
:10185000D2F808C00C682EF07003234340F2FF74E6
:10186000C4F20004A242536012DD40F60003C4F249
:1018700000039A4215D044F20003C4F201039A42D5
:101880000FD042F60043C4F201039A4209D00DE0A2
:10189000B2F1804F05D040F20043C4F200039A42F7
:1018A00004D149682CF08003194391600121002282
:1018B00080F83D1080F83C20BDE81040104670478D
:1018C000002804BF0120704710B5044690F83D0081
:1018D00028B9002084F83C00204600F093F802204C
:1018E00084F83D00206840F2FF720168C4F20002F3
:1018F00090421DDCB0F1804F26D040F20042C4F28D
:101900000002904220D042F6FF32C4F2010290421F
:1019100024DD44F2FF32C4F2010290422EDC42F692
:101920000042C4F20102904234D044F200022DE0A1
:1019300042F60042C4F20102904205D040F6000295
:10194000C4F200029042DED1A26821F0700111437E
:1019500042F6FF32C4F201029042DADCB0F1804F6D
:1019600018D040F20042C4F20002904212D040F679
:101970000002C4F2000290420CD00FE044F60002D4
:10198000C4F20102904205D044F20042C4F20102C6
:10199000904203D1226921F440711143A36921F0DF
:1019A0008001E2681943D4F804C00160A0F18041CD
:1019B000C262A1F59631820542EA91210729C0F859
:1019C00028C007D8012202FA01F111F0E10F1CBF73
:1019D0006169016301214161002084F8461084F8A7
:1019E0003E1084F83F1084F8401084F8411084F8C9
:1019F000421084F8431084F8441084F8451084F8A9
:101A00003D1010BD006842F60041C4F20101884259
:101A100018BF704781B041F21800C4F2020001689B
:101A200041F400610160006800F4006000900098DB
:101A300001B0704790F83D1001291CBF012070478C
:101A4000022180F83D10006840F2FF71C4F20001ED
:101A5000884213DD40F60001C4F20001884216D02E
:101A600044F20001C4F20101884210D042F6004164
:101A7000C4F2010188420AD010E000BFB0F1804FEB
:101A800005D040F20041C4F20001884206D18168CD
:101A900001F00701062904BF00207047016841F0EA
:101AA000010101600020704790F83C20012A4FF0AE
:101AB000020200F0C58080B580F83D20D0F800C05B
:101AC0004FF67772DCF8083023EA0202CCF80820DF
:101AD0000B684F2B28DC1F2B44DD202B45D0302BEF
:101AE00043D0402B40F0AE80D1F804E0C968DCF868
:101AF0002030DCF8202022F00102CCF82020DCF895
:101B0000182022F0F00242EA011123F00A0242EA10
:101B10000E02CCF81810CCF82020DCF8081041F0A8
:101B2000470121F0300180E06F2B27DDB3F5005F26
:101B300048D0B3F5805F7AD0702B40F08380D1E934
:101B400001E3C968DCF8082043EA0E0322F47F426F
:101B500043EA01211143CCF80810DCF8081041F0E9
:101B6000770162E00BB1102B6CD1DCF8081021F08A
:101B70007001194341F0070157E000BF502B35D0E9
:101B8000602B5FD1D1F804E0C968DCF82030DCF8C4
:101B9000202022F01002CCF82020DCF8182022F4BB
:101BA000704242EA013123F0A00242EA0E12CCF860
:101BB0001810CCF82020DCF8081041F0670121F063
:101BC000100132E0D1E901E3C968DCF8082043EAFA
:101BD0000E0322F47F4243EA01211143CCF808109E
:101BE000DCF8081041F480411FE000BFD1F804E0A8
:101BF000C968DCF82030DCF8202022F00102CCF8A3
:101C00002020DCF8182022F0F00242EA011123F033
:101C10000A0242EA0E02CCF81810CCF82020DCF8B8
:101C2000081041F0570121F02001CCF808100022E3
:101C3000012180F83D10002180F83C10BDE8804073
:101C4000104670470122F3E780B582B040F2E00011
:101C5000C2F200000821417040F2E8008DF8071040
:101C60004FF00A0CC2F200000DF107024E210123D1
:101C7000CDF800C0FEF702FF02B080BDB0B50C4643
:101C8000302101EAC0014031C501084600F032FEB2
:101C9000E8B200F02FFE2078050140F0010000F0CE
:101CA000F10000F027FE681CC0B200F023FE60784F
:101CB000050140F0010000F0F10000F01BFE681C7F
:101CC000C0B200F017FEA078050140F0010000F05E
:101CD000F10000F00FFE681CC0B200F00BFEE078CF
:101CE000050140F0010000F0F10000F003FE681C67
:101CF000C0B200F0FFFD2079050140F0010000F0C6
:101D0000F10000F0F7FD681CC0B200F0F3FD60794F
:101D1000050140F0010000F0F10000F0EBFD681C4F
:101D2000C0B200F0E7FDA079050140F0010000F02D
:101D3000F10000F0DFFD681CC0B200F0DBFDE079CF
:101D4000040140F0010000F0F10000F0D3FD601C40
:101D5000C0B2BDE8B04000F0CDBD00002DE9F041BB
:101D600082B040F2E004C2F20004082120706170E9
:101D7000042101284EF6FC5088BF0821A170CEF244
:101D80000000016841F2040521F0807101600168E2
:101D9000CEF2000541F08071016055F8040C20F08E
:101DA000010045F8040C55F8040C40F0010045F81A
:101DB000040C00202860322000BF00BF00BFFEF7E7
:101DC00073FB60780A278DF8040040F2E800C2F245
:101DD000000001AA4E2101230097FEF74FFE4FF4A9
:101DE0007A70FEF761FB302000F084FD40F21808A5
:101DF000C2F20008D8F800004DF68367C4F21B3722
:101E0000A0FB0701890C41F294122868514300BFDE
:101E10002A68121A0192019A8A4211D22A68121A69
:101E20000192019A8A420BD22A68121A0192019AEF
:101E30008A4205D22A68121A0192019A8A42E7D38D
:101E4000302000F057FDD8F8000041F29412A0FBBA
:101E50000701890C286851432A68121A0192019AD5
:101E60008A4211D22A68121A0192019A8A420BD22E
:101E70002A68121A0192019A8A4205D22A68121A15
:101E80000192019A8A42E7D3302000F033FDD8F85E
:101E9000000041F29412A0FB0701890C286851430D
:101EA0002A68121A0192019A8A4211D22A68121AD9
:101EB0000192019A8A420BD22A68121A0192019A5F
:101EC0008A4205D22A68121A0192019A8A42E7D3FD
:101ED000202000F00FFDD8F800006422A0FB0701CD
:101EE000890C2868514300BF2A68121A0192019A8E
:101EF0008A4211D22A68121A0192019A8A420BD29E
:101F00002A68121A0192019A8A4205D22A68121A84
:101F10000192019A8A42E7D3A07840F0200106019D
:101F200001F0F00000F0E6FCF0B200F0E3FC042069
:101F3000E070002000F0DEFCC02000F0DBFC0020A0
:101F400000F0D8FC102000F0D5FCD8F800004FF4C9
:101F5000FA62A0FB0701890C286851432A68121A0B
:101F60000192019A8A4211D22A68121A0192019AA8
:101F70008A420BD22A68121A0192019A8A4205D229
:101F80002A68121A0192019A8A42E7D3022020712C
:101F9000002000F0AFFC602000F0ACFCD8F800009E
:101FA00041F29412A0FB0701890C2868514300BF3D
:101FB0002A68121A0192019A8A4211D22A68121AC8
:101FC0000192019A8A420BD22A68121A0192019A4E
:101FD0008A4205D22A68121A0192019A8A42E7D3EC
:101FE00040F20004C2F2000400202146FFF746FE42
:101FF00004F108010120FFF741FE002000F07AFC07
:10200000202000F077FCD8F800004FF4FA62A0FB23
:102010000701890C286851432A68121A0192019A13
:102020008A4211D22A68121A0192019A8A420BD26C
:102030002A68121A0192019A8A4205D22A68121A53
:102040000192019A8A42E7D302B0BDE8F081000014
:102050000178002908BF7047B0B5441E41F0010067
:1020600000F0F1000D0100F045FC681CC0B200F06A
:1020700041FCA17801340029F0D1BDE8B04070479F
:1020800010B540F2E002C2F2000212788A4298BF14
:10209000511EC9B207A212F82110084440F0800175
:1020A000040101F0F00000F025FCE0B2BDE81040B2
:1020B00000F020BC00000000400000001400000000
:1020C00054000000FEE700002DE9F04782B004460E
:1020D00000689A460B9D0A9E0368914643F480620D
:1020E000026002680F4642F48071016020464FF0A2
:1020F000011100223346009500F032F950B12068FA
:102100000068C00544BF4FF400702064032002B093
:10211000BDE8F08740F202082068C0F2010807F02D
:10212000FE0707612046414632462B4600F0FEF985
:1021300020B1012002B0BDE8F08700BF002001906F
:1021400020682A46416901918069314601900198D1
:10215000204600F09FFAB0B92068BAF1010F09D00B
:102160004FEA19210161204631462A4600F092FAD1
:1021700048B920685FFA89F10161204631462A4654
:1021800000F088FA60B1206C0428D2D12068016880
:1021900041F400710160012002B0BDE8F08700BF8A
:1021A000206800220168334641F4807101602046B6
:1021B0004FF00111009500F0D3F800289FD147F0AF
:1021C000010C27682046414632462B46C7F810C00E
:1021D00002B0BDE8F04700F0A9B900002DE9F043D6
:1021E00083B0044600680D4601680A9F0B9E41F4C7
:1021F000807199469046016020464FF001110022FF
:102200003B46009600F0ACF850B120680068C0056D
:1022100044BF4FF400702064032003B0BDE8F08396
:10222000206805F0FE0101610221C0F20101204693
:102230003A46334600F07AF920B1012003B0BDE8F8
:10224000F08300BF0020029020683246416902916D
:102250008069394602900298204600F01BFA58B176
:10226000206C0428E9D12068016841F40071016004
:10227000012003B0BDE8F0832068B9F1010F0AD056
:102280004FEA1821016120463946324600F002FA31
:102290000028E5D120685FFA88F10161002003B0D1
:1022A000BDE8F08370B50368044653F8140F400787
:1022B00011D40E46481C29D086BB00BF18684005C3
:1022C00027D4FEF719FA236853F8140F400737D5BF
:1022D00018684007F2D5002070BD00BF186840079D
:1022E000F9D41868400514D418684007F3D4186866
:1022F00040050ED418684007EDD41868400508D48E
:10230000186840074FF0000048BF70BD18684005CE
:10231000E4D56FF480601860042012E0154603E0F5
:1023200053F8140F4007D6D418684005F1D4FEF7CF
:10233000E3F9401B2368B042F2D958694007EFD453
:10234000202000212022216384F83D2084F83E10C3
:10235000226C10432064012084F83C1070BD000002
:102360002DE9F041054600681E46144601F47F023F
:1023700001338FB242D0DDF81880B2F5803F40F0D3
:10238000878040693840C01BB0FA80F04009A04205
:1023900040F0C8804EB924E040693840C01BB0FA14
:1023A00080F04009A04240F0BD80FEF7A5F9A0EB07
:1023B00008012868B142EFD941693940C91BB1FA17
:1023C00081F14909A142E7D19BE000BF4069384053
:1023D000C01BB0FA80F04009A0424FF0000040F06E
:1023E000A280FEF789F9286841693940C91BB1FA12
:1023F00081F14909A142E9D183E000BFB2F5803FF4
:1024000024D100BF41693940C91BB1FA81F14909A2
:10241000A14240F0878041693940C91BB1FA81F17E
:102420004909A14240F07E8041693940C91BB1FA97
:1024300081F14909A14275D141693940C91BB1FAFD
:1024400081F14909A142DDD06CE000BF81693940CA
:10245000C91BB1FA81F14909A14263D181693940AF
:10246000C91BB1FA81F14909A1425BD181693940A7
:10247000C91BB1FA81F14909A14253D1816939409F
:10248000C91BB1FA81F14909A142DFD04AE000BF7E
:1024900080693840C01BB0FA80F04009A04241D1A9
:1024A00046B923E080693840C01BB0FA80F040098B
:1024B000A04237D1FEF720F9A0EB08012868B1420D
:1024C000F0D981693940C91BB1FA81F14909A142AA
:1024D000E8D116E080693840C01BB0FA80F04009AE
:1024E000A0424FF0000018BFBDE8F081FEF704F9EC
:1024F000286881693940C91BB1FA81F14909A142B3
:10250000E8D100202021286385F83D1085F83E00A1
:10251000296C41F02001296485F83C000120BDE8C8
:10252000F08100BF0020BDE8F0810000F0B581B06F
:10253000044600681D4643698FB203EA0701B942A9
:1025400002D1002001B0F0BD4169164601323FD0F2
:1025500049053FD4CEB100BFFEF7CEF8411B20683D
:10256000B14203D941693940B94215D14169394075
:10257000B942E6D041694905EED52BE041693940C1
:10258000B942DED04169490524D4FEF7B5F8206888
:1025900041693940B942F1D0202023E041693940F6
:1025A000B942CED04169490514D441693940B94294
:1025B000C7D0416949050DD441693940B942C0D0FD
:1025C0004169490506D441693940B942B9D04169E8
:1025D0004905E3D5016841F4007101606FF4806141
:1025E0004161042000212022216384F83D2084F8E9
:1025F0003E10226C1043206484F83C10012001B08E
:10260000F0BD000070B504460068154650F8143F50
:102610005A063DD40E4629B926E000BF50F8141FD3
:10262000490635D40168C90621D4FEF765F8411B77
:102630002068B142F2D941694906EFD40020202137
:10264000206384F83D1084F83E00206C40F02000A8
:1026500018E000BFFEF750F8206850F8141F490634
:10266000ECD50168490613D40168C906F2D56FF0AC
:102670001001016000202021206384F83D1084F8BF
:102680003E00206C2064002084F83C00012070BDD6
:10269000002070BD70B50368044653F8140F00069F
:1026A00011D40E46481C29D086BB00BF18684005CF
:1026B00027D4FEF721F8236853F8140F000637D506
:1026C00018680006F2D5002070BD00BF186800062B
:1026D000F9D41868400514D418680006F3D41868B3
:1026E00040050ED418680006EDD41868400508D4DB
:1026F000186800064FF0000048BF70BD186840051C
:10270000E4D56FF480601860042012E0154603E001
:1027100053F8140F0006D6D418684005F1D4FDF71D
:10272000EBFF401B2368B042F2D958690006EFD492
:10273000202000212022216384F83D2084F83E10CF
:10274000226C10432064012084F83C1070BD00000E
:102750002DE9F04385B00B4640F23E1740F240169B
:10276000044601600271C2F200070025C2F20006B1
:1027700051001846032202233D8035804FF00209A4
:10278000FEF772F820B1284605B0BDE8F08300BF1F
:1027900080212068ADF80E100DF10E014FF47A780B
:1027A000CDE90019802100220123CDF80880012500
:1027B000FEF7F6FB0120FDF777FE40F23C10C2F277
:1027C000000041F2EB0101800A204EF61031388002
:1027D0002068ADF8101004A9CDE900198021052268
:1027E0000123A6F80090CDF80880FEF7D9FB49F642
:1027F00039712068ADF812100DF11201CDE9001900
:10280000802100220123CDF80880FEF7C9FB28466D
:1028100005B0BDE8F083000080B584B000680221F7
:102820000DF10E024FF47A7CCDE9002180210222C5
:102830000123CDF808C0FEF70FFABDF80E006FF0C7
:10284000030100BA01EA504004B080BD80B584B0F5
:10285000006802210DF10E024FF47A7CCDE90021CF
:10286000802104220123CDF808C0FEF7F5F940F2DB
:102870003E11BDF80E00C2F20001B1F90010C0BA5D
:1028800090FBF1F000B204B080BD000080B584B0D0
:10289000006802210DF10E024FF47A7CCDE900218F
:1028A000802101220123CDF808C0FEF7D5F9BDF83B
:1028B0000E0000BA000C00F0A4FA41F27B4247F689
:1028C000E123C4F2AE72C3F6847300F0ADFA00F0F7
:1028D00069FA04B080BD0000FEE70000FEE70000DA
:1028E0007047000070470000FEF73ABC70470000D8
:1028F000FEE700002DE9F04385B040F2E009C2F2A6
:102900000009044699F8010040F2E8052043C2F2AC
:10291000000541F204068DF806000A270DF10602B3
:1029200028464E210123CEF200060097FEF7A6F8B6
:1029300099F801000DF10702204340F004008DF8E2
:10294000070028464E2101230097FEF797F840F232
:102950001808C2F20008D8F800004DF68365C4F2EA
:102960001B35A0FB0501880C00EB80013068890055
:102970003268121A0292029A8A4211D23268121AEC
:102980000292029A8A420BD23268121A0292029A78
:102990008A4205D23268121A0292029A8A42E7D318
:1029A00099F8010004F0FB0108438DF80F0040F294
:1029B000E8000A27C2F200000DF10F024E210123A8
:1029C0000097FEF75BF8D8F80000A0FB0501880C23
:1029D00000EB8001306889003268121A0492049A70
:1029E0008A4211D23268121A0492049A8A420BD295
:1029F0003268121A0492049A8A4205D23268121A74
:102A00000492049A8A42E7D305B0BDE8F08300003F
:102A100090B0FEF7B3FB0120002406904FF4803005
:102A20000225CDE90704CDE90D504FF480200F9029
:102A300006A8CDE90B44CDE90944FEF7E7FC28B12F
:102A4000EFF3108072B600BFFEE700BF0F20CDE9A4
:102A5000000568460021CDE902440494FEF71CFC01
:102A600020B1EFF3108072B6FEE700BF41F218000C
:102A7000C4F20200016840F6000441F01001016058
:102A80000168C4F2010401F0100106910699016881
:102A9000002241F02001016001684FF4187601F036
:102AA0002001069106990168002741F004010160A8
:102AB000016801F0040106910699016841F00801DE
:102AC000016000684FF4187100F008000690069845
:102AD0002046FDF70BFE04F5006528464FF44071D3
:102AE00000224FF44078FDF701FE069606AE4FF047
:102AF00001094FF0020A20463146CDE90797CDF88B
:102B000024A0FDF7E5FC28463146CDE90689CDE94C
:102B1000087AFDF7DDFC4FF48070CDE9060720460A
:102B200031460897FDF7D4FC40F2E800A4F53441A3
:102B3000C2F2000048F2A0624FF48043C0F20102EA
:102B400080E88600C0E90373C0E90577C0E907772C
:102B5000FDF7D8FD20B1EFF3108072B6FEE700BF9D
:102B600040F2800BC2F2000B04F51051584640F8B9
:102B7000181F47214FF6FF720997CDE90777CDE976
:102B80000077C0E90117C0E90327C0E90577FEF720
:102B900097FE28B1EFF3108072B600BFFEE700BFCA
:102BA0004FF480500BF11805069006A92846FEF751
:102BB0007BFF28B1EFF3108072B600BFFEE700BFC5
:102BC00069462846FEF738FE20B1EFF3108072B652
:102BD000FEE700BF0220FFF7C1F8FFF735F82846EF
:102BE000FEF728FF20464FF400710022FDF77EFD1E
:102BF00040F2E8060BF11008C2F2000640463146EA
:102C00004022FFF7A5FD0028F8D006AE6EE000BF19
:102C1000DBF81800DBF80410406ACBF80800401A13
:102C200000F0EFF84CF29C4246F67203CBF2200221
:102C3000C3F6A17300F0F8F800230022C3F6E07396
:102C400000F0F2F800F0AEF8ABF800003220FDF72B
:102C50002BFCBBF80020304649A1FDF7E9FA002023
:102C60000021FFF70DFA3046FFF7F2F94046FFF773
:102C7000D3FD4046FFF70AFE4046FFF7E7FDB946A1
:102C8000874238BF81460246002F08BF8146304642
:102C90003EA1FDF7CDFA00200121FFF7F1F9304602
:102CA000FFF7D6F930463CA14A46FDF7C1FA0820A5
:102CB0000021FFF7E5F93046FFF7CAF9B9F1C80F6F
:102CC0004FF0000A4FF0000220464FF0200138BFBD
:102CD0004FF0010AB9F1C70F88BF0122FDF706FDC9
:102CE000204640215246FDF701FD4F4620464FF455
:102CF00000710122FDF7FAFCDBF8180000214162A7
:102D0000416A092908D8416A092905D8416A09296F
:102D100002D8416A0A29F3D320464FF400710022F9
:102D2000FDF7E4FCFDF7E8FCCBF80C0020464FF47F
:102D30008071FDF7D5FC38B9DBF80C0000F10A050D
:102D4000FDF7DAFC8542F1D8DBF81800406ACBF8D1
:102D50000400FDF7D1FCCBF80C0000BF20464FF477
:102D60008071FDF7BDFC00283FF452AFDBF80C008A
:102D700000F13205FDF7C0FC8542EFD848E700BFFF
:102D800064697320256420636D0000006375722000
:102D90002564206D410000004D4158202564206DC0
:102DA000410000004FEA41034FEA5353A3F580630B
:102DB000D3F11E03C8BFD3F1210C0CDD4FF000424C
:102DC00042EAC12242EA505232FA03FC8CEAE17C28
:102DD000ACEBE1707047102BC4BF0020704703F5C7
:102DE000787CBCF1FF3F04D06FF0004282EA210002
:102DF000704770B500F0C2F84992248000207047F7
:102E0000F2E7B0FA80F310FA03F10AD0C3F11D0320
:102E100003F580634FEA03524FEA415002EBD121A0
:102E200070474FF00000704770B5DFF848C11CEAEA
:102E3000111E1EBF1CEA13159EEA0C0F95EA0C0F1B
:102E400000F06F8081EA03044EEAD47EAE4421EAAA
:102E50004C1123EA4C1341F4801143F48013AEF17A
:102E60007F7EA1FB024CA0FB0365361955EB0C05D8
:102E7000A1FB034C4CF10003A0FB021C16EB0C065B
:102E8000654153F10003094218BF46F0010613F4EF
:102E9000007F0BD14FEA03314FEA053041EA15516B
:102EA00040EA165034036FF003020AE04FEAC321F0
:102EB0004FEAC52041EA555140EA5650F4026FF0FE
:102EC000020202EB2E4201EB025585EACE710AD0D6
:102ED0005FEA440C18BF24F0004450F1000041F1B7
:102EE000000120EAD47040F2FE7C624500D270BD41
:102EF000A84214BF4FF080444FF04044002E08BF5A
:102F00000024BEF1806FA8BFA1F1C041BDE87040B0
:102F100080F2828001F1C04101F000414FF00000D9
:102F200070470CEA13159EEA0C0F18BF95EA0C0FB8
:102F300006D081EA030E4FF000000EF0004170BD94
:102F400000F01CF88900013E00F007B800F009B855
:102F50004FEA430C5FEA5C5C08D081EA030100F0B1
:102F60005BB84FEA410C5FEA5C5CF6D102494FF076
:102F7000000070470000FF070000F87F0EF1020E0E
:102F80002EF0030E5EF8046B364205D4012A43EBA3
:102F9000030515F5001F12D8012841EB010C1CF5A3
:102FA000001F0CD80ED14FEAD17C0CEB4C0C0CF16D
:102FB000020C15F5001F08BF4CEBD37C04E04FF06A
:102FC000080C01E04FEAD37C0CEB4C0526FA05F621
:102FD00006F00706B6F1040C06D20EEB860CBDE82F
:102FE00070404CF0010C6047DFE80CF0090B020266
:102FF0004FF00041A1F500214FF0000070BD1946CF
:103000001046012851EB010418BFD4F5001484BF09
:10301000002001F0004170BD0808A0F500114FEA42
:1030200031017047000000000000000001020304AD
:10303000060708090000000001020304020304055A
:10304000060708090A0B0C0D0E0F101001020304ED
:1030500005060708090A0B0C0D0E0F10803000083A
:10306000000000202000000084010008A0300008BB
:103070002000002028070000A40100080000000034
:1030800000191B060C1B1300181806090809060076
:1030900001000000100000000024F4000000000007
:0400000508000121CD
:00000001FF
